:040000006F0020303D
:100004000000000000000000600100006201000028
:1000140000000000000300000000000000000000D9
:1000240000030000000300000000000000000000C6
:1000340000030000000000000003000000000000B6
:1000440000030000000300000003000000030000A0
:100054000003000000030000000300000003000090
:100064000003000000030000000300000003000080
:100074000003000000030000000300000003000070
:100084000003000000030000000300000003000060
:100094000003000000030000000300000003000050
:1000A4000003000000030000000300000003000040
:1000B4000003000000030000000300000003000030
:1000C4000003000000030000000300000003000020
:1000D4000003000000030000000300000003000010
:1000E4000003000000030000000300000003000000
:0C00F400000300000003000000030000F7
:10010000397101436EC619A0397141536AC866CA74
:1001100062CC5ECE19A0397101535AD056D252D456
:100120004ED64AD826DA22DC06DE330161408282CE
:1001300041114AC026C222C406C68282B24D410184
:10014000024D924C224CB24B4101024B924A224A40
:10015000B2494101024992442244B24041018280A5
:1001600001A0B707EFBE37E700E0938707083CC759
:1001700001A0EFF2FFFB79712A848545114502CA7F
:1001800002CC02CE02C402C62318010002D002D261
:1001900002D402D6CD2485450545ED2C8947FC8245
:1001A00037150140E1473ECE4C08854713050580D1
:1001B0003ECCC92A37E5B8051305058033558502BD
:1001C0002C002317010002C47D1568863705004006
:1001D000CD24C167938707030C10370500403ED03C
:1001E00023140102252EA14537050040E52E854543
:1001F00037050040D92E8545370500405D2E456105
:1002000091BFEFF2FFF20128CD2E379521001305A3
:10021000051C853701A0B71702409843B706FFF0C9
:1002200041111367170098C3D84337060200758F32
:10023000D8C39843B706F7FEFD16758F98C3984349
:10024000B706FCFFFD16758F98C3D843B70601FFAC
:10025000FD16758FD8C337079F0098C702C402C622
:100260009843C166558F98C3B716024005679C42F4
:10027000F18F3EC6A24785073EC4B24781E7A24739
:10028000E397E7FEB71702409C431397E7006357D5
:10029000070685473EC632478547631FF704B717F1
:1002A0000240D843B706C1FFFD16D8C3D843D8C310
:1002B000D84313670740D8C3D843758FD8C3D843F2
:1002C000B7062900558FD8C39843B7060001558F4C
:1002D00098C3984393166700E3DD06FED843B7162C
:1002E0000240719BD8C3D84313672700D8C3214766
:1002F000DC42B18BE39EE7FE4101828002C661BF12
:1003000001A0970100209381E14F175100201301B4
:1003100061CF13054062970500209385A5CE138613
:10032000818063FAC5008322050023A055001105D2
:100330009105E3EAC5FE138581809385018163778A
:10034000B500232005001105E36DB5FEFD42739055
:1003500002BC8D42739042809302800873900230F9
:1003600097020000938242CA93E2320073905230A7
:10037000EFF07FEA970200009382E2E87390123474
:10038000730020309C4513F7070113F8F70001C7ED
:10039000D8413368E80037270240145B3707000F65
:1003A000758F4DEB85462384D18037170140631547
:1003B000E5009A2135839AA18E2113F7F50F39C3F1
:1003C00018418146854E3D4F930F80029302800471
:1003D000214E3396DE00B3F8C500631116039398DF
:1003E000260033131F011343F3FF3377E300B318E1
:1003F000180133E7E8006397F70750C98506E39AC9
:10040000C6FD18C11307F00F6375B70454412146A8
:10041000854E3D4F930F800293028004414EB39866
:10042000CE0033F715016392E80213172600011777
:100430003313EF001343F3FFB376D3003317E80011
:10044000D98E6395F703232A15010506E319C6FD26
:1004500054C1828037170140E310E5F603C781805D
:1004600021DF81BFE39C57F810C949BFE39F57FCC8
:1004700023281501D9BF99C5371702401C4F5D8D40
:1004800008CF8280B7170240984F1345F5FF798D4A
:1004900088CF828099C5371702405C4F5D8D48CF69
:1004A0008280B7170240D84F1345F5FF798DC8CF2A
:1004B00082801E2137370140130707C0C207C1835E
:1004C0006304E502370700406300E50213070740B5
:1004D000630CE50037170040930607806306D500DC
:1004E000130707C06316E500BA2193F7F7F8D98F11
:1004F000FA2193F7F7CFC207C183D98F1EA1DE215E
:100500005EB59E211EB5B7370140938707C06314BF
:10051000F5009C251EB985475EA982801E3165774E
:100520001307F7CFC207C183BD9BC207C1831EB1AA
:100530001E31562103D88500C20713960601162DD9
:10054000C18393F7F7FD758F96214182A206558FDF
:10055000B62142074183B3E606019206D58FB7362E
:100560000140C207938606C0C183631ED502B6252B
:1005700093F7F7F703D8C5009206D58FD621C207A7
:10058000C183920693F7F7FBD58FFD769386F63FEE
:10059000F18EF225C207C183336606010A06D18EA9
:1005A00013960601418252A11AADFA211ABD1EB15D
:1005B00082801E2189C593E717001EA18280C20791
:1005C000C183F99BC207C183CDBF1E2189C593E7B3
:1005D00007081EA18280C207C18393F7F7F7C207FD
:1005E000C183C5BF1A2DFD779387F77FF98FA205C9
:1005F000CD8FC207C1831EAD8280B707002083A7BD
:10060000070037177A0013070720B3D7E70293F7DD
:10061000F70F2386F1801307803EB387E702239507
:04062000F180828063
:0806240000D8B8050000000039
:00000001FF
